{
  "contractName": "Database",
  "abi": [
    {
      "constant": true,
      "inputs": [],
      "name": "name",
      "outputs": [
        {
          "name": "",
          "type": "string"
        }
      ],
      "payable": false,
      "stateMutability": "view",
      "type": "function"
    },
    {
      "constant": true,
      "inputs": [
        {
          "name": "",
          "type": "address"
        }
      ],
      "name": "addressToHandler",
      "outputs": [
        {
          "name": "_name",
          "type": "string"
        },
        {
          "name": "_additionalInformation",
          "type": "string"
        }
      ],
      "payable": false,
      "stateMutability": "view",
      "type": "function"
    },
    {
      "constant": true,
      "inputs": [],
      "name": "owner",
      "outputs": [
        {
          "name": "",
          "type": "address"
        }
      ],
      "payable": false,
      "stateMutability": "view",
      "type": "function"
    },
    {
      "constant": true,
      "inputs": [
        {
          "name": "",
          "type": "uint256"
        }
      ],
      "name": "items",
      "outputs": [
        {
          "name": "",
          "type": "address"
        }
      ],
      "payable": false,
      "stateMutability": "view",
      "type": "function"
    },
    {
      "constant": false,
      "inputs": [
        {
          "name": "newOwner",
          "type": "address"
        }
      ],
      "name": "transferOwnership",
      "outputs": [],
      "payable": false,
      "stateMutability": "nonpayable",
      "type": "function"
    },
    {
      "inputs": [
        {
          "name": "_name",
          "type": "string"
        }
      ],
      "payable": false,
      "stateMutability": "nonpayable",
      "type": "constructor"
    },
    {
      "payable": false,
      "stateMutability": "nonpayable",
      "type": "fallback"
    },
    {
      "constant": false,
      "inputs": [
        {
          "name": "_address",
          "type": "address"
        },
        {
          "name": "_name",
          "type": "string"
        },
        {
          "name": "_additionalInformation",
          "type": "string"
        }
      ],
      "name": "addHandler",
      "outputs": [],
      "payable": false,
      "stateMutability": "nonpayable",
      "type": "function"
    },
    {
      "constant": false,
      "inputs": [
        {
          "name": "itemAddress",
          "type": "address"
        }
      ],
      "name": "storeItemReference",
      "outputs": [],
      "payable": false,
      "stateMutability": "nonpayable",
      "type": "function"
    }
  ],
  "bytecode": "0x608060405234801561001057600080fd5b50604051610ae2380380610ae283398101806040528101908080518201929190505050336000806101000a81548173ffffffffffffffffffffffffffffffffffffffff021916908373ffffffffffffffffffffffffffffffffffffffff1602179055508060029080519060200190610089929190610090565b5050610135565b828054600181600116156101000203166002900490600052602060002090601f016020900481019282601f106100d157805160ff19168380011785556100ff565b828001600101855582156100ff579182015b828111156100fe5782518255916020019190600101906100e3565b5b50905061010c9190610110565b5090565b61013291905b8082111561012e576000816000905550600101610116565b5090565b90565b61099e806101446000396000f300608060405260043610610082576000357c0100000000000000000000000000000000000000000000000000000000900463ffffffff1680624077c11461009457806306fdde03146100d7578063590b2d9b146101675780638da5cb5b1461028f578063bfb231d2146102e6578063caa6374214610353578063f2fde38b14610422575b34801561008e57600080fd5b50600080fd5b3480156100a057600080fd5b506100d5600480360381019080803573ffffffffffffffffffffffffffffffffffffffff169060200190929190505050610465565b005b3480156100e357600080fd5b506100ec6104ce565b6040518080602001828103825283818151815260200191508051906020019080838360005b8381101561012c578082015181840152602081019050610111565b50505050905090810190601f1680156101595780820380516001836020036101000a031916815260200191505b509250505060405180910390f35b34801561017357600080fd5b506101a8600480360381019080803573ffffffffffffffffffffffffffffffffffffffff16906020019092919050505061056c565b604051808060200180602001838103835285818151815260200191508051906020019080838360005b838110156101ec5780820151818401526020810190506101d1565b50505050905090810190601f1680156102195780820380516001836020036101000a031916815260200191505b50838103825284818151815260200191508051906020019080838360005b83811015610252578082015181840152602081019050610237565b50505050905090810190601f16801561027f5780820380516001836020036101000a031916815260200191505b5094505050505060405180910390f35b34801561029b57600080fd5b506102a46106c0565b604051808273ffffffffffffffffffffffffffffffffffffffff1673ffffffffffffffffffffffffffffffffffffffff16815260200191505060405180910390f35b3480156102f257600080fd5b50610311600480360381019080803590602001909291905050506106e5565b604051808273ffffffffffffffffffffffffffffffffffffffff1673ffffffffffffffffffffffffffffffffffffffff16815260200191505060405180910390f35b34801561035f57600080fd5b50610420600480360381019080803573ffffffffffffffffffffffffffffffffffffffff169060200190929190803590602001908201803590602001908080601f0160208091040260200160405190810160405280939291908181526020018383808284378201915050505050509192919290803590602001908201803590602001908080601f0160208091040260200160405190810160405280939291908181526020018383808284378201915050505050509192919290505050610723565b005b34801561042e57600080fd5b50610463600480360381019080803573ffffffffffffffffffffffffffffffffffffffff169060200190929190505050610818565b005b60018190806001815401808255809150509060018203906000526020600020016000909192909190916101000a81548173ffffffffffffffffffffffffffffffffffffffff021916908373ffffffffffffffffffffffffffffffffffffffff1602179055505050565b60028054600181600116156101000203166002900480601f0160208091040260200160405190810160405280929190818152602001828054600181600116156101000203166002900480156105645780601f1061053957610100808354040283529160200191610564565b820191906000526020600020905b81548152906001019060200180831161054757829003601f168201915b505050505081565b6003602052806000526040600020600091509050806000018054600181600116156101000203166002900480601f0160208091040260200160405190810160405280929190818152602001828054600181600116156101000203166002900480156106185780601f106105ed57610100808354040283529160200191610618565b820191906000526020600020905b8154815290600101906020018083116105fb57829003601f168201915b505050505090806001018054600181600116156101000203166002900480601f0160208091040260200160405190810160405280929190818152602001828054600181600116156101000203166002900480156106b65780601f1061068b576101008083540402835291602001916106b6565b820191906000526020600020905b81548152906001019060200180831161069957829003601f168201915b5050505050905082565b6000809054906101000a900473ffffffffffffffffffffffffffffffffffffffff1681565b6001818154811015156106f457fe5b906000526020600020016000915054906101000a900473ffffffffffffffffffffffffffffffffffffffff1681565b61072b6108b3565b6000809054906101000a900473ffffffffffffffffffffffffffffffffffffffff1673ffffffffffffffffffffffffffffffffffffffff163373ffffffffffffffffffffffffffffffffffffffff1614151561078357fe5b82816000018190525081816020018190525080600360008673ffffffffffffffffffffffffffffffffffffffff1673ffffffffffffffffffffffffffffffffffffffff16815260200190815260200160002060008201518160000190805190602001906107f19291906108cd565b50602082015181600101908051906020019061080e9291906108cd565b5090505050505050565b6000809054906101000a900473ffffffffffffffffffffffffffffffffffffffff1673ffffffffffffffffffffffffffffffffffffffff163373ffffffffffffffffffffffffffffffffffffffff1614151561087057fe5b806000806101000a81548173ffffffffffffffffffffffffffffffffffffffff021916908373ffffffffffffffffffffffffffffffffffffffff16021790555050565b604080519081016040528060608152602001606081525090565b828054600181600116156101000203166002900490600052602060002090601f016020900481019282601f1061090e57805160ff191683800117855561093c565b8280016001018555821561093c579182015b8281111561093b578251825591602001919060010190610920565b5b509050610949919061094d565b5090565b61096f91905b8082111561096b576000816000905550600101610953565b5090565b905600a165627a7a72305820382654307d09dd47788bfb9240625ef00b3c4005f2c8d7ed79419325ef5808840029",
  "source": "pragma solidity ^0.4.7;\r\n\r\nimport \"./Owned.sol\";\r\n\r\n/*\r\n  Copyright 2017, David Riudor\r\n\r\n  This program is free software: you can redistribute it and/or modify\r\n  it under the terms of the GNU General Public License as published by\r\n  the Free Software Foundation, either version 3 of the License, or\r\n  (at your option) any later version.\r\n\r\n  This program is distributed in the hope that it will be useful,\r\n  but WITHOUT ANY WARRANTY; without even the implied warranty of\r\n  MERCHANTABILITY or FITNESS FOR A PARTICULAR PURPOSE.  See the\r\n  GNU General Public License for more details.\r\n\r\n  You should have received a copy of the GNU General Public License\r\n  along with this program.  If not, see <http://www.gnu.org/licenses/>.\r\n*/\r\n\r\n/* @title Database Contract\r\n  @author David Riudor\r\n  @dev This contract represents the database to store all handlers and products of the\r\n  TODO put name of platform ** platform.  */\r\n\r\ncontract Database is Owned {\r\n  // @dev addresses of the items referenced in this database\r\n    address[] public items;\r\n    string public name;\r\n  // @dev struct which represents a Handler for the products stored in the database.\r\n    struct Handler {\r\n    // @dev indicates the name of a Handler.\r\n        string _name;\r\n        // @dev Additional information about the Handler, generally as a JSON object\r\n        string _additionalInformation;\r\n    }\r\n\r\n    // @dev Relates an address with a Handler record.\r\n    mapping(address => Handler) public addressToHandler;\r\n\r\n    /* @notice Constructor to create a Database */\r\n    constructor( string _name) public {\r\n        name = _name;\r\n    }\r\n\r\n    function () public{\r\n        // If anyone wants to send Ether to this contract, the transaction gets rejected\r\n        revert();\r\n    }\r\n\r\n    /* @notice Function to add a Handler reference\r\n        @param _address address of the handler\r\n        @param _name The name of the Handler\r\n        @param _additionalInformation Additional information about the Product,\r\n                generally as a JSON object. */\r\n    function addHandler(address _address, string _name, string _additionalInformation) public onlyOwner {\r\n        Handler memory handler;\r\n        handler._name = _name;\r\n        handler._additionalInformation = _additionalInformation;\r\n\r\n        addressToHandler[_address] = handler;\r\n    }\r\n\r\n    /* @notice Function to add an item reference\r\n        @param itemAddress address of the item */\r\n    function storeItemReference(address itemAddress) public {\r\n        items.push(itemAddress);\r\n    }\r\n\r\n}\r\n",
  "sourcePath": "C:\\Users\\idoka\\OneDrive\\Documents\\OTS\\projects\\omnishipments\\contracts\\Database.sol",
  "compiler": {
    "name": "solc",
    "version": "0.4.24+commit.e67f0147.Emscripten.clang"
  },
  "schemaVersion": "2.0.0",
  "updatedAt": "2018-06-17T12:29:59.641Z"
}