{
  "contractName": "Item",
  "abi": [
    {
      "constant": true,
      "inputs": [],
      "name": "ITEM_FACTORY",
      "outputs": [
        {
          "name": "",
          "type": "address"
        }
      ],
      "payable": false,
      "stateMutability": "view",
      "type": "function"
    },
    {
      "constant": true,
      "inputs": [],
      "name": "name",
      "outputs": [
        {
          "name": "",
          "type": "bytes32"
        }
      ],
      "payable": false,
      "stateMutability": "view",
      "type": "function"
    },
    {
      "constant": true,
      "inputs": [],
      "name": "DATABASE_CONTRACT",
      "outputs": [
        {
          "name": "",
          "type": "address"
        }
      ],
      "payable": false,
      "stateMutability": "view",
      "type": "function"
    },
    {
      "constant": true,
      "inputs": [
        {
          "name": "",
          "type": "uint256"
        }
      ],
      "name": "actions",
      "outputs": [
        {
          "name": "handler",
          "type": "address"
        },
        {
          "name": "description",
          "type": "bytes32"
        },
        {
          "name": "lon",
          "type": "int256"
        },
        {
          "name": "lat",
          "type": "int256"
        },
        {
          "name": "timestamp",
          "type": "uint256"
        },
        {
          "name": "blockNumber",
          "type": "uint256"
        }
      ],
      "payable": false,
      "stateMutability": "view",
      "type": "function"
    },
    {
      "constant": true,
      "inputs": [],
      "name": "id",
      "outputs": [
        {
          "name": "",
          "type": "uint256"
        }
      ],
      "payable": false,
      "stateMutability": "view",
      "type": "function"
    },
    {
      "constant": false,
      "inputs": [
        {
          "name": "_description",
          "type": "bytes32"
        },
        {
          "name": "_lon",
          "type": "int256"
        },
        {
          "name": "_lat",
          "type": "int256"
        },
        {
          "name": "_timeStamp",
          "type": "uint256"
        }
      ],
      "name": "addAction",
      "outputs": [],
      "payable": false,
      "stateMutability": "nonpayable",
      "type": "function"
    }
  ],
  "bytecode": "0x608060405234801561001057600080fd5b506104e1806100206000396000f300608060405260043610610078576000357c0100000000000000000000000000000000000000000000000000000000900463ffffffff1680630449d6f61461007d57806306fdde03146100d4578063301374c61461010757806351a222241461015e57806383240f83146101ad578063af640d0f14610245575b600080fd5b34801561008957600080fd5b50610092610270565b604051808273ffffffffffffffffffffffffffffffffffffffff1673ffffffffffffffffffffffffffffffffffffffff16815260200191505060405180910390f35b3480156100e057600080fd5b506100e9610296565b60405180826000191660001916815260200191505060405180910390f35b34801561011357600080fd5b5061011c61029c565b604051808273ffffffffffffffffffffffffffffffffffffffff1673ffffffffffffffffffffffffffffffffffffffff16815260200191505060405180910390f35b34801561016a57600080fd5b506101ab60048036038101908080356000191690602001909291908035906020019092919080359060200190929190803590602001909291905050506102c1565b005b3480156101b957600080fd5b506101d8600480360381019080803590602001909291905050506103f4565b604051808773ffffffffffffffffffffffffffffffffffffffff1673ffffffffffffffffffffffffffffffffffffffff1681526020018660001916600019168152602001858152602001848152602001838152602001828152602001965050505050505060405180910390f35b34801561025157600080fd5b5061025a61045f565b6040518082815260200191505060405180910390f35b600160009054906101000a900473ffffffffffffffffffffffffffffffffffffffff1681565b60035481565b6000809054906101000a900473ffffffffffffffffffffffffffffffffffffffff1681565b6102c9610465565b33816000019073ffffffffffffffffffffffffffffffffffffffff16908173ffffffffffffffffffffffffffffffffffffffff16815250508481602001906000191690816000191681525050838160400181815250508281606001818152505081816080018181525050438160a00181815250506004819080600181540180825580915050906001820390600052602060002090600602016000909192909190915060008201518160000160006101000a81548173ffffffffffffffffffffffffffffffffffffffff021916908373ffffffffffffffffffffffffffffffffffffffff1602179055506020820151816001019060001916905560408201518160020155606082015181600301556080820151816004015560a082015181600501555050505050505050565b60048181548110151561040357fe5b90600052602060002090600602016000915090508060000160009054906101000a900473ffffffffffffffffffffffffffffffffffffffff16908060010154908060020154908060030154908060040154908060050154905086565b60025481565b60c060405190810160405280600073ffffffffffffffffffffffffffffffffffffffff168152602001600080191681526020016000815260200160008152602001600081526020016000815250905600a165627a7a723058208b92b32200293f034c253136cff9b2ba10ddec63286ffbc481860bda1eab8edd0029",
  "source": "pragma solidity ^0.4.7;\r\n\r\nimport \"./Database.sol\";\r\n\r\n/*\r\n    Copyright 2018, Premdas\r\n\r\n    This program is free software: you can redistribute it and/or modify\r\n    it under the terms of the GNU General Public License as published by\r\n    the Free Software Foundation, either version 3 of the License, or\r\n    (at your option) any later version.\r\n\r\n    This program is distributed in the hope that it will be useful,\r\n    but WITHOUT ANY WARRANTY; without even the implied warranty of\r\n    MERCHANTABILITY or FITNESS FOR A PARTICULAR PURPOSE.  See the\r\n    GNU General Public License for more details.\r\n\r\n    You should have received a copy of the GNU General Public License\r\n    along with this program.  If not, see <http://www.gnu.org/licenses/>.\r\n */\r\n\r\n/* @title item Contract\r\n   @author Premdas \r\n   @dev This contract represents a basic item in the OTS\r\n   platform. This item lets the handlers to register actions on it or even combine\r\n   it with other items. */\r\ncontract Item {\r\n     // @dev Reference to its database contract.\r\n    address public DATABASE_CONTRACT;\r\n\r\n    // @dev Reference to its item factory.\r\n    address public ITEM_FACTORY;\r\n\r\n    uint public id;\r\n    bytes32 public name; \r\n\r\n    Action[] public actions;\r\n\r\n    // @dev This struct represents an action realized by a handler on the product.\r\n    struct Action {\r\n        //@dev address of the individual or the organization who realizes the action.\r\n        address handler;\r\n        //@dev description of the action.\r\n        bytes32 description;\r\n\r\n        // @dev Longitude x10^10 where the Action is done.\r\n        int lon;\r\n        // @dev Latitude x10^10 where the Action is done.\r\n        int lat;\r\n\r\n        // @dev Instant of time when the Action is done.\r\n        uint timestamp;\r\n        // @dev Block when the Action is done.\r\n        uint blockNumber;\r\n    }\r\n\r\n    \r\n        /* @notice Function to add an Action to the item.\r\n        @param _description The description of the Action.\r\n        @param _lon Longitude x10^10 where the Action is done.\r\n        @param _lat Latitude x10^10 where the Action is done.\r\n        */\r\n    function addAction(\r\n        bytes32 _description, int _lon, int _lat,uint _timeStamp) public{\r\n        Action memory action;\r\n        action.handler = msg.sender;\r\n        action.description = _description;\r\n        action.lon = _lon;\r\n        action.lat = _lat;\r\n        action.timestamp = _timeStamp;\r\n        action.blockNumber = block.number;\r\n        actions.push(action);\r\n\r\n    \r\n    }\r\n}",
  "sourcePath": "C:\\Users\\idoka\\OneDrive\\Documents\\OTS\\projects\\omnishipments\\contracts\\Item.sol",
  "compiler": {
    "name": "solc",
    "version": "0.4.24+commit.e67f0147.Emscripten.clang"
  },
  "schemaVersion": "2.0.0",
  "updatedAt": "2018-06-17T12:29:59.641Z"
}