{
  "contractName": "OrderFactory",
  "abi": [
    {
      "inputs": [],
      "payable": false,
      "stateMutability": "nonpayable",
      "type": "constructor"
    },
    {
      "payable": false,
      "stateMutability": "nonpayable",
      "type": "fallback"
    },
    {
      "constant": false,
      "inputs": [
        {
          "name": "_id",
          "type": "uint256"
        },
        {
          "name": "_name",
          "type": "bytes32"
        },
        {
          "name": "_creationTime",
          "type": "uint256"
        },
        {
          "name": "_lon",
          "type": "int256"
        },
        {
          "name": "_lat",
          "type": "int256"
        },
        {
          "name": "DATABASE_CONTRACT",
          "type": "address"
        }
      ],
      "name": "createOrder",
      "outputs": [
        {
          "name": "",
          "type": "address"
        }
      ],
      "payable": false,
      "stateMutability": "nonpayable",
      "type": "function"
    }
  ],
  "bytecode": "0x608060405234801561001057600080fd5b50610c32806100206000396000f300608060405260043610610041576000357c0100000000000000000000000000000000000000000000000000000000900463ffffffff1680630814f2c314610053575b34801561004d57600080fd5b50600080fd5b34801561005f57600080fd5b506100ca600480360381019080803590602001909291908035600019169060200190929190803590602001909291908035906020019092919080359060200190929190803573ffffffffffffffffffffffffffffffffffffffff16906020019092919050505061010c565b604051808273ffffffffffffffffffffffffffffffffffffffff1673ffffffffffffffffffffffffffffffffffffffff16815260200191505060405180910390f35b60008686868686863061011d6101da565b8088815260200187600019166000191681526020018681526020018581526020018481526020018373ffffffffffffffffffffffffffffffffffffffff1673ffffffffffffffffffffffffffffffffffffffff1681526020018273ffffffffffffffffffffffffffffffffffffffff1673ffffffffffffffffffffffffffffffffffffffff168152602001975050505050505050604051809103906000f0801580156101cd573d6000803e3d6000fd5b5090509695505050505050565b604051610a1c806101eb833901905600608060405234801561001057600080fd5b5060405160e080610a1c83398101806040528101908080519060200190929190805190602001909291908051906020019092919080519060200190929190805190602001909291908051906020019092919080519060200190929190505050600087600281905550866003816000191690555085600681905550826000806101000a81548173ffffffffffffffffffffffffffffffffffffffff021916908373ffffffffffffffffffffffffffffffffffffffff16021790555081600160006101000a81548173ffffffffffffffffffffffffffffffffffffffff021916908373ffffffffffffffffffffffffffffffffffffffff1602179055506101467f4f72646572206372656174696f6e000000000000000000000000000000000000868689610229640100000000026401000000009004565b6000809054906101000a900473ffffffffffffffffffffffffffffffffffffffff1690508073ffffffffffffffffffffffffffffffffffffffff16624077c1306040518263ffffffff167c0100000000000000000000000000000000000000000000000000000000028152600401808273ffffffffffffffffffffffffffffffffffffffff1673ffffffffffffffffffffffffffffffffffffffff168152602001915050600060405180830381600087803b15801561020457600080fd5b505af1158015610218573d6000803e3d6000fd5b5050505050505050505050506103ac565b61023161035c565b33816000019073ffffffffffffffffffffffffffffffffffffffff16908173ffffffffffffffffffffffffffffffffffffffff16815250508481602001906000191690816000191681525050838160400181815250508281606001818152505081816080018181525050438160a00181815250506004819080600181540180825580915050906001820390600052602060002090600602016000909192909190915060008201518160000160006101000a81548173ffffffffffffffffffffffffffffffffffffffff021916908373ffffffffffffffffffffffffffffffffffffffff1602179055506020820151816001019060001916905560408201518160020155606082015181600301556080820151816004015560a082015181600501555050505050505050565b60c060405190810160405280600073ffffffffffffffffffffffffffffffffffffffff16815260200160008019168152602001600081526020016000815260200160008152602001600081525090565b610661806103bb6000396000f30060806040526004361061008e576000357c0100000000000000000000000000000000000000000000000000000000900463ffffffff1680630449d6f61461009357806306fdde03146100ea578063301374c61461011d57806351a222241461017457806383240f83146101c3578063a0669a281461025b578063af640d0f146102a8578063d8270dce146102d3575b600080fd5b34801561009f57600080fd5b506100a86102fe565b604051808273ffffffffffffffffffffffffffffffffffffffff1673ffffffffffffffffffffffffffffffffffffffff16815260200191505060405180910390f35b3480156100f657600080fd5b506100ff610324565b60405180826000191660001916815260200191505060405180910390f35b34801561012957600080fd5b5061013261032a565b604051808273ffffffffffffffffffffffffffffffffffffffff1673ffffffffffffffffffffffffffffffffffffffff16815260200191505060405180910390f35b34801561018057600080fd5b506101c1600480360381019080803560001916906020019092919080359060200190929190803590602001909291908035906020019092919050505061034f565b005b3480156101cf57600080fd5b506101ee60048036038101908080359060200190929190505050610482565b604051808773ffffffffffffffffffffffffffffffffffffffff1673ffffffffffffffffffffffffffffffffffffffff1681526020018660001916600019168152602001858152602001848152602001838152602001828152602001965050505050505060405180910390f35b34801561026757600080fd5b506102a6600480360381019080803573ffffffffffffffffffffffffffffffffffffffff169060200190929190803590602001909291905050506104ed565b005b3480156102b457600080fd5b506102bd6105a9565b6040518082815260200191505060405180910390f35b3480156102df57600080fd5b506102e86105af565b6040518082815260200191505060405180910390f35b600160009054906101000a900473ffffffffffffffffffffffffffffffffffffffff1681565b60035481565b6000809054906101000a900473ffffffffffffffffffffffffffffffffffffffff1681565b6103576105b5565b33816000019073ffffffffffffffffffffffffffffffffffffffff16908173ffffffffffffffffffffffffffffffffffffffff16815250508481602001906000191690816000191681525050838160400181815250508281606001818152505081816080018181525050438160a00181815250506004819080600181540180825580915050906001820390600052602060002090600602016000909192909190915060008201518160000160006101000a81548173ffffffffffffffffffffffffffffffffffffffff021916908373ffffffffffffffffffffffffffffffffffffffff1602179055506020820151816001019060001916905560408201518160020155606082015181600301556080820151816004015560a082015181600501555050505050505050565b60048181548110151561049157fe5b90600052602060002090600602016000915090508060000160009054906101000a900473ffffffffffffffffffffffffffffffffffffffff16908060010154908060020154908060030154908060040154908060050154905086565b6104f5610605565b60408051908101604052808473ffffffffffffffffffffffffffffffffffffffff1681526020018381525090506005819080600181540180825580915050906001820390600052602060002090600202016000909192909190915060008201518160000160006101000a81548173ffffffffffffffffffffffffffffffffffffffff021916908373ffffffffffffffffffffffffffffffffffffffff16021790555060208201518160010155505050505050565b60025481565b60065481565b60c060405190810160405280600073ffffffffffffffffffffffffffffffffffffffff16815260200160008019168152602001600081526020016000815260200160008152602001600081525090565b6040805190810160405280600073ffffffffffffffffffffffffffffffffffffffff1681526020016000815250905600a165627a7a723058200c3919462c3e4ef05e1e55f22d05ccbd5cef93a6366bd94056c08af1c59fe0f70029a165627a7a72305820085b3464b286880227f2879e2daed01b5b36c50c52508c7073e454d3803d79470029",
  "source": "pragma solidity ^0.4.7;\r\nimport \"./Product.sol\";\r\n\r\n\r\n\r\ncontract Order is Item{\r\n\r\n   \r\n    ProductInShipment[] private productsList;\r\n    uint public creationTime; \r\n    struct ProductInShipment\r\n    {\r\n        Product product;\r\n        uint quantity;\r\n    }\r\n    constructor(uint _id, bytes32 _name,uint _creationTime, int _lon, int _lat, address\r\n     _DATABASE_CONTRACT, address _Order_FACTORY) public\r\n    {\r\n        id = _id;\r\n        name = _name;\r\n        creationTime = _creationTime;\r\n        DATABASE_CONTRACT = _DATABASE_CONTRACT;\r\n        ITEM_FACTORY = _Order_FACTORY;\r\n\r\n        addAction(\"Order creation\", _lon, _lat, _creationTime);\r\n        Database database = Database(DATABASE_CONTRACT);\r\n        database.storeItemReference(this);\r\n    }\r\n\r\n    function AddProduct(Product _toAdd, uint _quantity) public\r\n    {\r\n        ProductInShipment memory toAdd = ProductInShipment(_toAdd, _quantity);\r\n        productsList.push(toAdd);\r\n    }\r\n\r\n\r\n\r\n\r\n}\r\ncontract OrderFactory {\r\n\r\n      /////////////////\r\n     // Constructor //\r\n    /////////////////\r\n\r\n    /* @notice Constructor to create a Order Factory */\r\n    constructor() public {}\r\n\r\n    function () public {\r\n        // If anyone wants to send Ether to this contract, the transaction gets rejected\r\n        revert();\r\n    }\r\n\r\n    /* @notice Function to create a Order\r\n       @param _id The id of the Order\r\n       @param _name The name of the Order\r\n       @param _description about the Order,\r\n              generally as a JSON object.\r\n       @param _timeStamp the UNIXTIME of creation */\r\n    function createOrder( \r\n        uint _id, bytes32 _name, uint _creationTime, \r\n        int _lon, int _lat, address DATABASE_CONTRACT) public returns(address) {\r\n        return new Order(_id, _name, _creationTime, _lon, _lat, DATABASE_CONTRACT, this);\r\n    }\r\n}",
  "sourcePath": "C:\\Users\\idoka\\OneDrive\\Documents\\OTS\\projects\\omnishipments\\contracts\\Order.sol",
  "compiler": {
    "name": "solc",
    "version": "0.4.24+commit.e67f0147.Emscripten.clang"
  },
  "schemaVersion": "2.0.0",
  "updatedAt": "2018-06-17T12:29:59.641Z"
}